{
  "_format": "hh-sol-artifact-1",
  "contractName": "MyToken",
  "sourceName": "contracts/ERC-20.sol",
  "abi": [
    {
      "inputs": [],
      "stateMutability": "nonpayable",
      "type": "constructor"
    },
    {
      "inputs": [
        {
          "internalType": "address",
          "name": "spender",
          "type": "address"
        },
        {
          "internalType": "uint256",
          "name": "allowance",
          "type": "uint256"
        },
        {
          "internalType": "uint256",
          "name": "needed",
          "type": "uint256"
        }
      ],
      "name": "ERC20InsufficientAllowance",
      "type": "error"
    },
    {
      "inputs": [
        {
          "internalType": "address",
          "name": "sender",
          "type": "address"
        },
        {
          "internalType": "uint256",
          "name": "balance",
          "type": "uint256"
        },
        {
          "internalType": "uint256",
          "name": "needed",
          "type": "uint256"
        }
      ],
      "name": "ERC20InsufficientBalance",
      "type": "error"
    },
    {
      "inputs": [
        {
          "internalType": "address",
          "name": "approver",
          "type": "address"
        }
      ],
      "name": "ERC20InvalidApprover",
      "type": "error"
    },
    {
      "inputs": [
        {
          "internalType": "address",
          "name": "receiver",
          "type": "address"
        }
      ],
      "name": "ERC20InvalidReceiver",
      "type": "error"
    },
    {
      "inputs": [
        {
          "internalType": "address",
          "name": "sender",
          "type": "address"
        }
      ],
      "name": "ERC20InvalidSender",
      "type": "error"
    },
    {
      "inputs": [
        {
          "internalType": "address",
          "name": "spender",
          "type": "address"
        }
      ],
      "name": "ERC20InvalidSpender",
      "type": "error"
    },
    {
      "inputs": [
        {
          "internalType": "address",
          "name": "owner",
          "type": "address"
        }
      ],
      "name": "OwnableInvalidOwner",
      "type": "error"
    },
    {
      "inputs": [
        {
          "internalType": "address",
          "name": "account",
          "type": "address"
        }
      ],
      "name": "OwnableUnauthorizedAccount",
      "type": "error"
    },
    {
      "anonymous": false,
      "inputs": [
        {
          "indexed": true,
          "internalType": "address",
          "name": "owner",
          "type": "address"
        },
        {
          "indexed": true,
          "internalType": "address",
          "name": "spender",
          "type": "address"
        },
        {
          "indexed": false,
          "internalType": "uint256",
          "name": "value",
          "type": "uint256"
        }
      ],
      "name": "Approval",
      "type": "event"
    },
    {
      "anonymous": false,
      "inputs": [
        {
          "indexed": true,
          "internalType": "address",
          "name": "previousOwner",
          "type": "address"
        },
        {
          "indexed": true,
          "internalType": "address",
          "name": "newOwner",
          "type": "address"
        }
      ],
      "name": "OwnershipTransferred",
      "type": "event"
    },
    {
      "anonymous": false,
      "inputs": [
        {
          "indexed": true,
          "internalType": "address",
          "name": "from",
          "type": "address"
        },
        {
          "indexed": true,
          "internalType": "address",
          "name": "to",
          "type": "address"
        },
        {
          "indexed": false,
          "internalType": "uint256",
          "name": "value",
          "type": "uint256"
        }
      ],
      "name": "Transfer",
      "type": "event"
    },
    {
      "inputs": [
        {
          "internalType": "address",
          "name": "owner",
          "type": "address"
        },
        {
          "internalType": "address",
          "name": "spender",
          "type": "address"
        }
      ],
      "name": "allowance",
      "outputs": [
        {
          "internalType": "uint256",
          "name": "",
          "type": "uint256"
        }
      ],
      "stateMutability": "view",
      "type": "function"
    },
    {
      "inputs": [
        {
          "internalType": "address",
          "name": "spender",
          "type": "address"
        },
        {
          "internalType": "uint256",
          "name": "value",
          "type": "uint256"
        }
      ],
      "name": "approve",
      "outputs": [
        {
          "internalType": "bool",
          "name": "",
          "type": "bool"
        }
      ],
      "stateMutability": "nonpayable",
      "type": "function"
    },
    {
      "inputs": [
        {
          "internalType": "address",
          "name": "account",
          "type": "address"
        }
      ],
      "name": "balanceOf",
      "outputs": [
        {
          "internalType": "uint256",
          "name": "",
          "type": "uint256"
        }
      ],
      "stateMutability": "view",
      "type": "function"
    },
    {
      "inputs": [],
      "name": "decimals",
      "outputs": [
        {
          "internalType": "uint8",
          "name": "",
          "type": "uint8"
        }
      ],
      "stateMutability": "view",
      "type": "function"
    },
    {
      "inputs": [
        {
          "internalType": "address",
          "name": "account",
          "type": "address"
        }
      ],
      "name": "getBalance",
      "outputs": [
        {
          "internalType": "uint256",
          "name": "",
          "type": "uint256"
        }
      ],
      "stateMutability": "view",
      "type": "function"
    },
    {
      "inputs": [],
      "name": "getTotalSupply",
      "outputs": [
        {
          "internalType": "uint256",
          "name": "",
          "type": "uint256"
        }
      ],
      "stateMutability": "view",
      "type": "function"
    },
    {
      "inputs": [
        {
          "internalType": "address",
          "name": "account",
          "type": "address"
        }
      ],
      "name": "isOwner",
      "outputs": [
        {
          "internalType": "bool",
          "name": "",
          "type": "bool"
        }
      ],
      "stateMutability": "view",
      "type": "function"
    },
    {
      "inputs": [
        {
          "internalType": "address",
          "name": "to",
          "type": "address"
        },
        {
          "internalType": "uint256",
          "name": "amount",
          "type": "uint256"
        }
      ],
      "name": "mint",
      "outputs": [],
      "stateMutability": "nonpayable",
      "type": "function"
    },
    {
      "inputs": [
        {
          "internalType": "uint256",
          "name": "amount",
          "type": "uint256"
        }
      ],
      "name": "mintForSelf",
      "outputs": [],
      "stateMutability": "nonpayable",
      "type": "function"
    },
    {
      "inputs": [],
      "name": "name",
      "outputs": [
        {
          "internalType": "string",
          "name": "",
          "type": "string"
        }
      ],
      "stateMutability": "view",
      "type": "function"
    },
    {
      "inputs": [],
      "name": "owner",
      "outputs": [
        {
          "internalType": "address",
          "name": "",
          "type": "address"
        }
      ],
      "stateMutability": "view",
      "type": "function"
    },
    {
      "inputs": [],
      "name": "renounceOwnership",
      "outputs": [],
      "stateMutability": "nonpayable",
      "type": "function"
    },
    {
      "inputs": [],
      "name": "symbol",
      "outputs": [
        {
          "internalType": "string",
          "name": "",
          "type": "string"
        }
      ],
      "stateMutability": "view",
      "type": "function"
    },
    {
      "inputs": [],
      "name": "totalSupply",
      "outputs": [
        {
          "internalType": "uint256",
          "name": "",
          "type": "uint256"
        }
      ],
      "stateMutability": "view",
      "type": "function"
    },
    {
      "inputs": [
        {
          "internalType": "address",
          "name": "to",
          "type": "address"
        },
        {
          "internalType": "uint256",
          "name": "value",
          "type": "uint256"
        }
      ],
      "name": "transfer",
      "outputs": [
        {
          "internalType": "bool",
          "name": "",
          "type": "bool"
        }
      ],
      "stateMutability": "nonpayable",
      "type": "function"
    },
    {
      "inputs": [
        {
          "internalType": "address",
          "name": "from",
          "type": "address"
        },
        {
          "internalType": "address",
          "name": "to",
          "type": "address"
        },
        {
          "internalType": "uint256",
          "name": "value",
          "type": "uint256"
        }
      ],
      "name": "transferFrom",
      "outputs": [
        {
          "internalType": "bool",
          "name": "",
          "type": "bool"
        }
      ],
      "stateMutability": "nonpayable",
      "type": "function"
    },
    {
      "inputs": [
        {
          "internalType": "address",
          "name": "newOwner",
          "type": "address"
        }
      ],
      "name": "transferOwnership",
      "outputs": [],
      "stateMutability": "nonpayable",
      "type": "function"
    },
    {
      "inputs": [
        {
          "internalType": "address",
          "name": "to",
          "type": "address"
        },
        {
          "internalType": "uint256",
          "name": "amount",
          "type": "uint256"
        }
      ],
      "name": "transferTokens",
      "outputs": [
        {
          "internalType": "bool",
          "name": "",
          "type": "bool"
        }
      ],
      "stateMutability": "nonpayable",
      "type": "function"
    }
  ],
  "bytecode": "0x608060405234801561001057600080fd5b50336040518060400160405280600781526020017f4d79546f6b656e000000000000000000000000000000000000000000000000008152506040518060400160405280600381526020017f4d544b0000000000000000000000000000000000000000000000000000000000815250816003908161008d9190610729565b50806004908161009d9190610729565b505050600073ffffffffffffffffffffffffffffffffffffffff168173ffffffffffffffffffffffffffffffffffffffff16036101125760006040517f1e4fbdf7000000000000000000000000000000000000000000000000000000008152600401610109919061083c565b60405180910390fd5b6101218161015d60201b60201c565b506101583361013461022360201b60201c565b600a61014091906109c6565b6103e861014d9190610a11565b61022c60201b60201c565b610ae8565b6000600560009054906101000a900473ffffffffffffffffffffffffffffffffffffffff16905081600560006101000a81548173ffffffffffffffffffffffffffffffffffffffff021916908373ffffffffffffffffffffffffffffffffffffffff1602179055508173ffffffffffffffffffffffffffffffffffffffff168173ffffffffffffffffffffffffffffffffffffffff167f8be0079c531659141344cd1fd0a4f28419497f9722a3daafe3b4186f6b6457e060405160405180910390a35050565b60006012905090565b600073ffffffffffffffffffffffffffffffffffffffff168273ffffffffffffffffffffffffffffffffffffffff160361029e5760006040517fec442f05000000000000000000000000000000000000000000000000000000008152600401610295919061083c565b60405180910390fd5b6102b0600083836102b460201b60201c565b5050565b600073ffffffffffffffffffffffffffffffffffffffff168373ffffffffffffffffffffffffffffffffffffffff16036103065780600260008282546102fa9190610a53565b925050819055506103d9565b60008060008573ffffffffffffffffffffffffffffffffffffffff1673ffffffffffffffffffffffffffffffffffffffff16815260200190815260200160002054905081811015610392578381836040517fe450d38c00000000000000000000000000000000000000000000000000000000815260040161038993929190610a96565b60405180910390fd5b8181036000808673ffffffffffffffffffffffffffffffffffffffff1673ffffffffffffffffffffffffffffffffffffffff16815260200190815260200160002081905550505b600073ffffffffffffffffffffffffffffffffffffffff168273ffffffffffffffffffffffffffffffffffffffff1603610422578060026000828254039250508190555061046f565b806000808473ffffffffffffffffffffffffffffffffffffffff1673ffffffffffffffffffffffffffffffffffffffff168152602001908152602001600020600082825401925050819055505b8173ffffffffffffffffffffffffffffffffffffffff168373ffffffffffffffffffffffffffffffffffffffff167fddf252ad1be2c89b69c2b068fc378daa952ba7f163c4a11628f55a4df523b3ef836040516104cc9190610acd565b60405180910390a3505050565b600081519050919050565b7f4e487b7100000000000000000000000000000000000000000000000000000000600052604160045260246000fd5b7f4e487b7100000000000000000000000000000000000000000000000000000000600052602260045260246000fd5b6000600282049050600182168061055a57607f821691505b60208210810361056d5761056c610513565b5b50919050565b60008190508160005260206000209050919050565b60006020601f8301049050919050565b600082821b905092915050565b6000600883026105d57fffffffffffffffffffffffffffffffffffffffffffffffffffffffffffffffff82610598565b6105df8683610598565b95508019841693508086168417925050509392505050565b6000819050919050565b6000819050919050565b600061062661062161061c846105f7565b610601565b6105f7565b9050919050565b6000819050919050565b6106408361060b565b61065461064c8261062d565b8484546105a5565b825550505050565b600090565b61066961065c565b610674818484610637565b505050565b5b818110156106985761068d600082610661565b60018101905061067a565b5050565b601f8211156106dd576106ae81610573565b6106b784610588565b810160208510156106c6578190505b6106da6106d285610588565b830182610679565b50505b505050565b600082821c905092915050565b6000610700600019846008026106e2565b1980831691505092915050565b600061071983836106ef565b9150826002028217905092915050565b610732826104d9565b67ffffffffffffffff81111561074b5761074a6104e4565b5b6107558254610542565b61076082828561069c565b600060209050601f8311600181146107935760008415610781578287015190505b61078b858261070d565b8655506107f3565b601f1984166107a186610573565b60005b828110156107c9578489015182556001820191506020850194506020810190506107a4565b868310156107e657848901516107e2601f8916826106ef565b8355505b6001600288020188555050505b505050505050565b600073ffffffffffffffffffffffffffffffffffffffff82169050919050565b6000610826826107fb565b9050919050565b6108368161081b565b82525050565b6000602082019050610851600083018461082d565b92915050565b7f4e487b7100000000000000000000000000000000000000000000000000000000600052601160045260246000fd5b60008160011c9050919050565b6000808291508390505b60018511156108dd578086048111156108b9576108b8610857565b5b60018516156108c85780820291505b80810290506108d685610886565b945061089d565b94509492505050565b6000826108f657600190506109b2565b8161090457600090506109b2565b816001811461091a576002811461092457610953565b60019150506109b2565b60ff84111561093657610935610857565b5b8360020a91508482111561094d5761094c610857565b5b506109b2565b5060208310610133831016604e8410600b84101617156109885782820a90508381111561098357610982610857565b5b6109b2565b6109958484846001610893565b925090508184048111156109ac576109ab610857565b5b81810290505b9392505050565b600060ff82169050919050565b60006109d1826105f7565b91506109dc836109b9565b9250610a097fffffffffffffffffffffffffffffffffffffffffffffffffffffffffffffffff84846108e6565b905092915050565b6000610a1c826105f7565b9150610a27836105f7565b9250828202610a35816105f7565b91508282048414831517610a4c57610a4b610857565b5b5092915050565b6000610a5e826105f7565b9150610a69836105f7565b9250828201905080821115610a8157610a80610857565b5b92915050565b610a90816105f7565b82525050565b6000606082019050610aab600083018661082d565b610ab86020830185610a87565b610ac56040830184610a87565b949350505050565b6000602082019050610ae26000830184610a87565b92915050565b61135a80610af76000396000f3fe608060405234801561001057600080fd5b50600436106101165760003560e01c80638da5cb5b116100a2578063c49b3d5411610071578063c49b3d54146102f7578063c4e41b2214610313578063dd62ed3e14610331578063f2fde38b14610361578063f8b2cb4f1461037d57610116565b80638da5cb5b1461025b57806395d89b4114610279578063a9059cbb14610297578063bec3fa17146102c757610116565b80632f54bf6e116100e95780632f54bf6e146101b7578063313ce567146101e757806340c10f191461020557806370a0823114610221578063715018a61461025157610116565b806306fdde031461011b578063095ea7b31461013957806318160ddd1461016957806323b872dd14610187575b600080fd5b6101236103ad565b6040516101309190610f81565b60405180910390f35b610153600480360381019061014e919061103c565b61043f565b6040516101609190611097565b60405180910390f35b610171610462565b60405161017e91906110c1565b60405180910390f35b6101a1600480360381019061019c91906110dc565b61046c565b6040516101ae9190611097565b60405180910390f35b6101d160048036038101906101cc919061112f565b61049b565b6040516101de9190611097565b60405180910390f35b6101ef6104da565b6040516101fc9190611178565b60405180910390f35b61021f600480360381019061021a919061103c565b6104e3565b005b61023b6004803603810190610236919061112f565b6104f9565b60405161024891906110c1565b60405180910390f35b610259610541565b005b610263610555565b60405161027091906111a2565b60405180910390f35b61028161057f565b60405161028e9190610f81565b60405180910390f35b6102b160048036038101906102ac919061103c565b610611565b6040516102be9190611097565b60405180910390f35b6102e160048036038101906102dc919061103c565b610634565b6040516102ee9190611097565b60405180910390f35b610311600480360381019061030c91906111bd565b610648565b005b61031b610655565b60405161032891906110c1565b60405180910390f35b61034b600480360381019061034691906111ea565b610664565b60405161035891906110c1565b60405180910390f35b61037b6004803603810190610376919061112f565b6106eb565b005b6103976004803603810190610392919061112f565b610771565b6040516103a491906110c1565b60405180910390f35b6060600380546103bc90611259565b80601f01602080910402602001604051908101604052809291908181526020018280546103e890611259565b80156104355780601f1061040a57610100808354040283529160200191610435565b820191906000526020600020905b81548152906001019060200180831161041857829003601f168201915b5050505050905090565b60008061044a610783565b905061045781858561078b565b600191505092915050565b6000600254905090565b600080610477610783565b905061048485828561079d565b61048f858585610832565b60019150509392505050565b60006104a5610555565b73ffffffffffffffffffffffffffffffffffffffff168273ffffffffffffffffffffffffffffffffffffffff16149050919050565b60006012905090565b6104eb610926565b6104f582826109ad565b5050565b60008060008373ffffffffffffffffffffffffffffffffffffffff1673ffffffffffffffffffffffffffffffffffffffff168152602001908152602001600020549050919050565b610549610926565b6105536000610a2f565b565b6000600560009054906101000a900473ffffffffffffffffffffffffffffffffffffffff16905090565b60606004805461058e90611259565b80601f01602080910402602001604051908101604052809291908181526020018280546105ba90611259565b80156106075780601f106105dc57610100808354040283529160200191610607565b820191906000526020600020905b8154815290600101906020018083116105ea57829003601f168201915b5050505050905090565b60008061061c610783565b9050610629818585610832565b600191505092915050565b60006106408383610611565b905092915050565b61065233826109ad565b50565b600061065f610462565b905090565b6000600160008473ffffffffffffffffffffffffffffffffffffffff1673ffffffffffffffffffffffffffffffffffffffff16815260200190815260200160002060008373ffffffffffffffffffffffffffffffffffffffff1673ffffffffffffffffffffffffffffffffffffffff16815260200190815260200160002054905092915050565b6106f3610926565b600073ffffffffffffffffffffffffffffffffffffffff168173ffffffffffffffffffffffffffffffffffffffff16036107655760006040517f1e4fbdf700000000000000000000000000000000000000000000000000000000815260040161075c91906111a2565b60405180910390fd5b61076e81610a2f565b50565b600061077c826104f9565b9050919050565b600033905090565b6107988383836001610af5565b505050565b60006107a98484610664565b90507fffffffffffffffffffffffffffffffffffffffffffffffffffffffffffffffff81101561082c578181101561081c578281836040517ffb8f41b20000000000000000000000000000000000000000000000000000000081526004016108139392919061128a565b60405180910390fd5b61082b84848484036000610af5565b5b50505050565b600073ffffffffffffffffffffffffffffffffffffffff168373ffffffffffffffffffffffffffffffffffffffff16036108a45760006040517f96c6fd1e00000000000000000000000000000000000000000000000000000000815260040161089b91906111a2565b60405180910390fd5b600073ffffffffffffffffffffffffffffffffffffffff168273ffffffffffffffffffffffffffffffffffffffff16036109165760006040517fec442f0500000000000000000000000000000000000000000000000000000000815260040161090d91906111a2565b60405180910390fd5b610921838383610ccc565b505050565b61092e610783565b73ffffffffffffffffffffffffffffffffffffffff1661094c610555565b73ffffffffffffffffffffffffffffffffffffffff16146109ab5761096f610783565b6040517f118cdaa70000000000000000000000000000000000000000000000000000000081526004016109a291906111a2565b60405180910390fd5b565b600073ffffffffffffffffffffffffffffffffffffffff168273ffffffffffffffffffffffffffffffffffffffff1603610a1f5760006040517fec442f05000000000000000000000000000000000000000000000000000000008152600401610a1691906111a2565b60405180910390fd5b610a2b60008383610ccc565b5050565b6000600560009054906101000a900473ffffffffffffffffffffffffffffffffffffffff16905081600560006101000a81548173ffffffffffffffffffffffffffffffffffffffff021916908373ffffffffffffffffffffffffffffffffffffffff1602179055508173ffffffffffffffffffffffffffffffffffffffff168173ffffffffffffffffffffffffffffffffffffffff167f8be0079c531659141344cd1fd0a4f28419497f9722a3daafe3b4186f6b6457e060405160405180910390a35050565b600073ffffffffffffffffffffffffffffffffffffffff168473ffffffffffffffffffffffffffffffffffffffff1603610b675760006040517fe602df05000000000000000000000000000000000000000000000000000000008152600401610b5e91906111a2565b60405180910390fd5b600073ffffffffffffffffffffffffffffffffffffffff168373ffffffffffffffffffffffffffffffffffffffff1603610bd95760006040517f94280d62000000000000000000000000000000000000000000000000000000008152600401610bd091906111a2565b60405180910390fd5b81600160008673ffffffffffffffffffffffffffffffffffffffff1673ffffffffffffffffffffffffffffffffffffffff16815260200190815260200160002060008573ffffffffffffffffffffffffffffffffffffffff1673ffffffffffffffffffffffffffffffffffffffff168152602001908152602001600020819055508015610cc6578273ffffffffffffffffffffffffffffffffffffffff168473ffffffffffffffffffffffffffffffffffffffff167f8c5be1e5ebec7d5bd14f71427d1e84f3dd0314c0f7b2291e5b200ac8c7c3b92584604051610cbd91906110c1565b60405180910390a35b50505050565b600073ffffffffffffffffffffffffffffffffffffffff168373ffffffffffffffffffffffffffffffffffffffff1603610d1e578060026000828254610d1291906112f0565b92505081905550610df1565b60008060008573ffffffffffffffffffffffffffffffffffffffff1673ffffffffffffffffffffffffffffffffffffffff16815260200190815260200160002054905081811015610daa578381836040517fe450d38c000000000000000000000000000000000000000000000000000000008152600401610da19392919061128a565b60405180910390fd5b8181036000808673ffffffffffffffffffffffffffffffffffffffff1673ffffffffffffffffffffffffffffffffffffffff16815260200190815260200160002081905550505b600073ffffffffffffffffffffffffffffffffffffffff168273ffffffffffffffffffffffffffffffffffffffff1603610e3a5780600260008282540392505081905550610e87565b806000808473ffffffffffffffffffffffffffffffffffffffff1673ffffffffffffffffffffffffffffffffffffffff168152602001908152602001600020600082825401925050819055505b8173ffffffffffffffffffffffffffffffffffffffff168373ffffffffffffffffffffffffffffffffffffffff167fddf252ad1be2c89b69c2b068fc378daa952ba7f163c4a11628f55a4df523b3ef83604051610ee491906110c1565b60405180910390a3505050565b600081519050919050565b600082825260208201905092915050565b60005b83811015610f2b578082015181840152602081019050610f10565b60008484015250505050565b6000601f19601f8301169050919050565b6000610f5382610ef1565b610f5d8185610efc565b9350610f6d818560208601610f0d565b610f7681610f37565b840191505092915050565b60006020820190508181036000830152610f9b8184610f48565b905092915050565b600080fd5b600073ffffffffffffffffffffffffffffffffffffffff82169050919050565b6000610fd382610fa8565b9050919050565b610fe381610fc8565b8114610fee57600080fd5b50565b60008135905061100081610fda565b92915050565b6000819050919050565b61101981611006565b811461102457600080fd5b50565b60008135905061103681611010565b92915050565b6000806040838503121561105357611052610fa3565b5b600061106185828601610ff1565b925050602061107285828601611027565b9150509250929050565b60008115159050919050565b6110918161107c565b82525050565b60006020820190506110ac6000830184611088565b92915050565b6110bb81611006565b82525050565b60006020820190506110d660008301846110b2565b92915050565b6000806000606084860312156110f5576110f4610fa3565b5b600061110386828701610ff1565b935050602061111486828701610ff1565b925050604061112586828701611027565b9150509250925092565b60006020828403121561114557611144610fa3565b5b600061115384828501610ff1565b91505092915050565b600060ff82169050919050565b6111728161115c565b82525050565b600060208201905061118d6000830184611169565b92915050565b61119c81610fc8565b82525050565b60006020820190506111b76000830184611193565b92915050565b6000602082840312156111d3576111d2610fa3565b5b60006111e184828501611027565b91505092915050565b6000806040838503121561120157611200610fa3565b5b600061120f85828601610ff1565b925050602061122085828601610ff1565b9150509250929050565b7f4e487b7100000000000000000000000000000000000000000000000000000000600052602260045260246000fd5b6000600282049050600182168061127157607f821691505b6020821081036112845761128361122a565b5b50919050565b600060608201905061129f6000830186611193565b6112ac60208301856110b2565b6112b960408301846110b2565b949350505050565b7f4e487b7100000000000000000000000000000000000000000000000000000000600052601160045260246000fd5b60006112fb82611006565b915061130683611006565b925082820190508082111561131e5761131d6112c1565b5b9291505056fea26469706673582212206c8c729ad991c5b8a7936abfd6d326c3b40bc4142532dd598e8f7efe1ca241ff64736f6c634300081c0033",
  "linkReferences": {},
  "deployedLinkReferences": {}
}